:03020000020208EF
:0302610002020393
:0502030012112C80FE29
:03000000020200F9
:0100030032CA
:01000B0032C2
:0100130032BA
:01001B0032B2
:0100230032AA
:01002B0032A2
:01003300329A
:01003B003292
:01004300328A
:01004B003282
:01005300327A
:01005B003272
:01006300326A
:0101000032CC
:0101040032C8
:0101080032C4
:01010C0032C0
:0101100032BC
:0101140032B8
:0101180032B4
:0101200032AC
:0101240032A8
:0101280032A4
:01012C0032A0
:01013000329C
:010134003298
:010138003294
:01013C003290
:01014000328C
:010148003284
:01014C003280
:01015000327C
:010154003278
:010158003274
:01015C003270
:01016000326C
:01017000325C
:010174003258
:010178003254
:01017C003250
:01018000324C
:010184003248
:010188003244
:01018C003240
:01019000323C
:010194003238
:010198003234
:01019C003230
:0101A000322C
:0101A8003224
:0101AC003220
:0101B000321C
:0101B4003218
:0101B8003214
:08026400AA82AB837C007D003F
:0B026C00C3EC9AED9B50147EB07F04A1
:050277001EBEFF011F87
:0B027C00EE4F70F70CBC00E80D80E5B1
:010287002254
:08028800AA82AB837C007D001B
:0B029000C3EC9AED9B50147E0A7F0027
:05029B001EBEFF011F63
:0B02A000EE4F70F70CBC00E80D80E58D
:0102AB002230
:0E02AC0075AF0790E67BE090E67CF0DAF32277
:0202BA007A00C8
:0302BC00BAFF0086
:0D02BF00500B90E678E0FB20E0030A80F091
:0C02CC0090E678E0FA20E204EA20E10B62
:0B02D80090E678E04440F075820122BF
:0402E30075820022FE
:0202E7007A009B
:0302E900BAFF0059
:0D02EC00500B90E678E0FB20E0030A80F064
:0E02F90090E678E0FA30E20B90E678E04440C0
:05030700F075820122E7
:04030C0075820022D4
:020310007A0071
:03031200BAFF002F
:0E031500500F90E678E0FB20E2047582002293
:030323000A80EC61
:0403260075820122B9
:02032A007A0057
:03032C00BAFF0015
:0E032F00500F90E678E0FB20E6047582002275
:03033D000A80EC47
:04034000758201229F
:08034400AA82C3E49AE433FA33
:0D034C0090E678E04480F0C00212031090AB
:0E035900E67974A2F01202BAE582D0027012A8
:0C036700E521600A90E678E04440F012C6
:02037300032A5B
:04037500758200226B
:0E037900EA600C90000AC002120288D00280D6
:01038700C4B1
:0C038800E521600890E678E0FA4440F0BF
:04039400758201224B
:0C039800AA82AB837C0075210075826492
:0E03A400C002C003C004120344E582D004D09E
:0803B20003D002600302049471
:0C03BA0090E679E523F0C002C003C00407
:0E03C6001202BAE582D004D003D00260030216
:0203D40004948F
:0C03D60090E679E522F0C002C003C004EC
:0E03E2001202BAE582D004D003D002600302FA
:0203F000049473
:0E03F20090E678E04440F0C002C003C0041260
:0D040000032A90E678E04480F0120310908B
:0E040D00E67974A3F01202BAE582D004D0039F
:0E041B00D002707590E679E08A828B83F0C083
:0E04290002C003C0041202E7E582D004D00333
:05043700D0027059FD28
:0C043C00C3ED9524502A90E679E08A82F6
:0E0448008B83F0A3AA82AB83C002C003C00462
:0E045600C0051202E7E582D005D004D003D025
:0804640002702D0D8D0480D003
:0E046C0090E678E04420F090E679E0C00412BB
:0E047A0002E7E582D004701290E678E044407C
:0C048800F090E679E0C00412032AD004D2
:030494008C822235
:0C049700AA82AB837C0075210075826492
:0E04A300C002C003C004120344E582D004D09E
:0804B10003D002600302054ABA
:0C04B90090E679E526F0C002C003C00404
:0E04C5001202BAE582D004D003D00260030216
:0204D300054AD8
:0C04D50090E679E525F0C002C003C004E9
:0E04E1001202BAE582D004D003D002705CFD96
:0C04EF00C3ED952750478A828B83E0FE06
:0E04FB00A3AA82AB8390E679EEF0903204E083
:0D050900FFEE2FF0903202E0FEA3E0FF9025
:0E051600320274012EF0E43FA3F0C002C003D5
:0E052400C004C0051202BAE582D005D004D092
:0A05320003D00270130D8D0480B396
:0E053C0090E678E04440F0C00412032AD00498
:03054A008C82227E
:0A054D0090320DE0FA903200E0F564
:0605570022A3E0F5238A57
:0C055D002490E740C002120398AB82D04B
:0E056900027C00903200E0FDA3E0FE90320024
:0A057700EA2DF0EC3EA3F08B822287
:0B058100AA82903200E0F525A3E0F50F
:09058C00268A2790E740C0021204
:0E0595000497D0027B00903200E0FCA3E0FD52
:0B05A300903200EA2CF0EB3DA3F022A8
:0E05AE0090E6017480F00000000090E670E41A
:0E05BC00F090E671F090E672F075B202C28126
:0E05CA0090000A12026475B3FF75B40C75A0A0
:0E05D8000875B501C2B0D281D2B07A007B00A6
:0E05E60020A0208A048B057E007F00C3EC94C9
:0E05F400FFED94FFEE9400EF648094805007BA
:070602000ABA00E00B80DDE5
:0706090030A0047AC8800252
:020610007A640A
:0E06120090320AEAF0903206E4F0A3F0A3F072
:0B062000A3F0903205E4F075A000226A
:03062B000205AE17
:0D062E0075B4FF75A0FF75B53675B00022DC
:07063B0030A0047A148002D4
:020642007A0A32
:0E06440090320AE0FBEA2BF0C2B0759000D2B3
:0E065200B0C2B0D2B0C2B0D2B0C2B0D2B0C24C
:0E066000B0D2B0C2B0D2B0C2B0D2B0C2B0D22E
:0E066E00B0C2B0D2B0C2B0D2B0C2B0D2B0757D
:0E067C00B30075B40075B50075B20030A0046F
:04068A007A0280026E
:02068E007A01EF
:0E06900090320AE0FBEA2BF030810312062EB6
:06069E00D28143B20222EA
:0E06A40090320DE0FA903206E0FBA3E0FCA3DA
:0E06B200E0FDA3E0FE7F0078007900903206A4
:0E06C000EA2BF0EF3CA3F0E83DA3F0E93EA3E7
:0E06CE00F090E68BE06022FA759B40759AE78B
:0B06DC0075AF07903205E0F990E67B57
:0E06E700C2B0E0F59029F9D2B0DAF5903205F4
:0206F500E9F02A
:0806F70090E68BE0FABA400026
:0506FF00500302063B60
:0107040022D2
:01006C00286B
:01006D000191
:04006E005A54455843
:040072000A0B000075
:010076000089
:010077000187
:060078000300000000007F
:0C007E0000000000000000000000000076
:0A008A00303030303030303030308C
:0E07050090E683E4F07420F07410F07430F08D
:0E07130090E6837401F07421F07411F07431DB
:0E072100F090E6837412F07432F07404F074F9
:03072F0024F02291
:0A073200AA82E50924E050037509CE
:01073C001F9D
:0C073D008A9B85089A759E41759DE79087
:0A074900E67C7403F075AF077A0038
:0C075300C3EA9509501190E67BE0FB9092
:0B075F00E67CF090E67CE4F00A80E904
:0B076A00E5090425E0FA90E740F0905C
:0E077500E7417403F090E68AE4F090E68BEA28
:02078300F02262
:0E07850090320BE0FAA3E0FBC374409AE49BB1
:0807930050067C407D0080044B
:04079B008A048B053C
:0E079F0090320DECF07D0090320BEAC39CF01E
:0507AD00EB9DA3F0220A
:0A07B20090320EE0FABA3102802BFB
:0407BC00BA3201222A
:0E07C000BA3927903204E4F0903202F0A3F030
:0E07CE0090E6BBE0FB7A0090E6BAE0FC7D000E
:0B07DC00903200EC4AF0ED4BA3F0223D
:0307E70002062BDC
:0807EA0090E6A0E04401F022BA
:0C07F200C020C0E0C0F0C082C083C00284
:0E07FE00C003C004C005C006C007C000C00193
:0E080C00C0D075D00090E6B9E0FA90320EF040
:0E081A0090E6B57401F090E6B9E0FA24F350D0
:0408280003020BA814
:07082C00EA2A2A9008337349
:0708330002085A02090E023F
:06083A000BA802098B026D
:060840000BA8020BA80248
:060846000A23020B3E0232
:06084C000B40020B5102FB
:060852000B56020B6702C9
:020858000B6C27
:0A085A0090E6B8E0FABA8002800DC3
:05086400BA8102801EB4
:05086900BA8202802F9D
:03086E00020BA8D2
:0E08710090E740E4F090E741F090E68AF090C6
:08087F00E68B7402F0020BA8E5
:0E08870090E740E4F090E741F090E68AF090B0
:08089500E68B7402F0020BA8CF
:0C089D0090E6BCE0FA600FBA010280197E
:0508A900BA8002800589
:0508AE00BA812F801E3D
:0E08B30090E6A0E0FA53020190E740EAF080E0
:0108C1003AFC
:0E08C20090E6A1E0FA53020190E740EAF080D0
:0108D0002BFC
:0E08D10090E6A2E0FA53020190E740EAF080C0
:0108DF001CFC
:0E08E00090E6BCE0C31314540324A3F582E495
:0E08EE0034E6F583E0FA53020190E740EAF0A9
:0E08FC0090E741E4F090E68AF090E68B7402FB
:04090A00F0020BA844
:0A090E0090E6B8E0FABA0202800396
:03091800020BA827
:09091B0090E6BAE06003020BA8AB
:0C09240090E6BCE0FA600FBA01028015FA
:05093000BA8002800501
:05093500BA81238016C9
:0B093A0090E6A0E0FA54FEF0020BA8CB
:0B09450090E6A1E0FA54FEF0020BA8BF
:0B09500090E6A2E0FA54FEF0020BA8B3
:0E095B0090E6BCE0C31314540324A3FAE43462
:0E096900E6FB90E6BCE0C31314540324A3F590
:0E09770082E434E6F583E0FC5304FE8A828BB2
:0609850083ECF0020BA858
:0A098B0090E6B8E0FABA0202800319
:03099500020BA8AA
:0909980090E6BAE06003020BA82E
:0C09A10090E6BCE0FA600FBA010280147E
:0509AD00BA8002800584
:0509B200BA8120801451
:0A09B70090E6A0E0FA4401F0804150
:0A09C10090E6A1E0FA4401F080374F
:0A09CB0090E6A2E0FA4401F0802D4E
:0E09D50090E6BCE0C31314540324A3FAE434E8
:0E09E300E6FB90E6BCE0C31314540324A3F516
:0E09F10082E434E6F583E0FC4304FE8A828B48
:0309FF0083ECF096
:0E0A020090E6BCE05480C423541FFA90E6BC7A
:0E0A1000E0FB740F5B420290E683EAF0742074
:050A1E004AF0020BA8E4
:0A0A230090E6BBE0FABA0102801968
:050A2D00BA0202802660
:050A3200BA0302804D33
:060A3700BA0603020AF7F3
:060A3D00BA0703020B09D9
:030A4300020B346F
:0A0A46007A4A7B1490E6B3EBF090BF
:080A5000E6B4744AF0020BA8A1
:0B0A580090E680E0FA30E7127A667B3F
:0A0A63001490E6B3EBF090E6B474D3
:050A6D0066F0020BA879
:0A0A72007A967B1490E6B3EBF09047
:080A7C00E6B47496F0020BA829
:0A0A840090E6BAE0FABA0102800F12
:050A8E00BA0202801C09
:050A9300BA03028029F6
:050A9800BA044A80369B
:060A9D0075822F7A2F7B09
:040AA300148B087533
:060AA700090512073202EE
:020AAD000BA894
:060AAF007582347A347BED
:040AB500148B087521
:060AB900090B12073202D6
:020ABF000BA882
:0A0AC10075828A7A8A7B008B087523
:060ACB00090A12073202C5
:020AD1000BA870
:060AD30075823F7A3F7BB3
:040AD900148B0875FD
:060ADD00090A12073202B3
:020AE3000BA85E
:0A0AE5007AC67B1490E6B3EBF090A4
:080AEF00E6B474C6F0020BA886
:0A0AF7007A5C7B1490E6B3EBF090FC
:080B0100E6B4745CF0020BA8DD
:0B0B090090E680E0FA30E7127A967B5D
:0A0B14001490E6B3EBF090E6B47421
:050B1E0096F0020BA897
:0A0B23007A667B1490E6B3EBF090C5
:070B2D00E6B47466F0807469
:0A0B340090E6A0E0FA4401F0806AA8
:020B3E008068CD
:0E0B400090E740E4F090E68AF090E68B7401B6
:030B4E00F08057DD
:050B51001207058052AF
:0E0B560090E740E4F090E68AF090E68B7401A0
:030B6400F08041DD
:050B6700120705803CAF
:0E0B6C0090E6B8E0FABA823490E6BCE0C3131B
:0B0B7A0014540325E02410F582E4343D
:0C0B850032F583E4F0A3F090E685E090E8
:0D0B9100E740F090E684E0FA90E741F09034
:0A0B9E00E68AE4F090E68B7402F0A2
:0B0BA80090E6B8E0FABA4003020CBC73
:050BB300BAC00280033E
:030BB800020CE646
:0E0BBB0090E6BFE0FB7A0090E6BEE0FC7D0015
:0E0BC90090320BEC4AF0ED4BA3F01207859032
:090BD700E6B9E0FABA220280132B
:060BE000BA3003020C759F
:050BE600BA3802802571
:050BEB00BA3A02804946
:030BF000020CB242
:0E0BF30090E6B5E4F090E68AF090E68B742868
:0D0C0100F090E6B3E4F090E6B4746CF002FD
:020C0E000CE6F2
:0E0C100090E6BBE0FB7A0090E6BAE0FC7D00C7
:0E0C1E00903200EC4AF0ED4BA3F090E68AE431
:0D0C2C00F012054DE58290E68BF0020CE61B
:0E0C3900903202E0FAA3E0FB8A0490E740EC60
:0D0C4700F08B0290E741EAF0903204E0905B
:0C0C5400E742F075210175820012034494
:0D0C6000AA8290E743EAF090E68AE4F09063
:080C6D00E68B7404F0020CE6B2
:0A0C7500C002759B05759A32759E4A
:0E0C7F0041759DE77A061202ACD00253B2FD19
:0E0C8D0030810C90E740E4F0D28143B2028047
:010C9B00094F
:090C9C0090E7407401F01205AE6E
:0D0CA50090E68AE4F090E68B7407F080344E
:0A0CB20090E6A0E0FA4401F0802A69
:0C0CBC0090E6BFE0700690E6BEE0601617
:0E0CC80090320F7401F090E68BE4F05391EF40
:080CD60090E65D7401F0801945
:080CDE001207B290E68BE4F06E
:0E0CE6005391EF90E65D7401F090E6A0E0FA05
:030CF4004480F049
:0E0CF700D0D0D001D000D007D006D005D00458
:0D0D0500D003D002D083D082D0F0D0E0D057
:020D120020328D
:0E0D1400C0E0C082C0835391EF90E65D740290
:080D2200F0D083D082D0E03252
:0E0D2A00C0E0C082C0835391EF90E65D740478
:080D3800F0D083D082D0E0323C
:0E0D4000C0E0C082C0835391EF90E65D74085E
:080D4E00F0D083D082D0E03226
:0E0D5600C0E0C082C0835391EF90E65D741040
:080D6400F0D083D082D0E03210
:0E0D6C00C0E0C082C0835391EF90E65D74201A
:080D7A00F0D083D082D0E032FA
:0E0D8200C0E0C082C0835391EF90E65D7440E4
:080D9000F0D083D082D0E032E4
:0C0D9800C020C0E0C0F0C082C083C002D8
:0E0DA400C003C004C005C006C007C000C001E7
:0E0DB200C0D075D000C2E812078590320EE066
:060DC000FABA30028023A4
:050DC600BA38028005AF
:050DCB00BA3A12801984
:0E0DD00090E68AE4F012054DE58290E68BF085
:020DDE0080098A
:090DE00090E68AE4F090E68BF045
:0E0DE9005391EF90E65F7401F0D2E8D0D0D0C5
:0E0DF70001D000D007D006D005D004D003D024
:0C0E050002D083D082D0F0D0E0D02032A8
:0C0E1100C020C0E0C0F0C082C083C0025E
:0E0E1D00C003C004C005C006C007C000C0016D
:0E0E2B00C0D075D000C2E890320FE0FA60200F
:0D0E390090320FE4F090E6BFE0FB7A0090ED
:0E0E4600E6BEE0FC7D0090320BEC4AF0ED4B76
:050E5400A3F01207B23B
:0D0E590012078590320EE0FABA31028016C1
:050E6600BA3202800E0B
:0E0E6B00BA390E90E68BE0F582120581800305
:030E79001206A4BA
:0E0E7C0090E68BE4F05391EF90E65F7402F085
:0E0E8A0090320BE0FAA3E0FB4A700890E6A05D
:050E9800E0FA4480F0C7
:0E0E9D00D2E8D0D0D001D000D007D006D005CA
:0E0EAB00D004D003D002D083D082D0F0D0E0AB
:030EB900D0203214
:0E0EBC00C0E0C082C0835391EF90E65F7404E3
:080ECA00F0D083D082D0E032A9
:0E0ED200C0E0C082C0835391EF90E65F7408C9
:080EE000F0D083D082D0E03293
:0E0EE800C0E0C082C0835391EF90E65F7410AB
:080EF600F0D083D082D0E0327D
:0E0EFE00C0E0C082C0835391EF90E65F742085
:080F0C00F0D083D082D0E03266
:0E0F1400C0E0C082C0835391EF90E65F74404E
:080F2200F0D083D082D0E03250
:0E0F2A00C0E0C082C0835391EF90E65F7480F8
:080F3800F0D083D082D0E0323A
:0E0F400090E680E04408F090E6007412F05352
:0E0F4E008EF8D28143B202C2AFC2E8900043D7
:0E0F5C007402F09000447401F090004574B8E7
:0E0F6A00F090E668E04408F09001007402F098
:0A0F78007AF27B078B04900101EC74
:0D0F8200F0900102EAF09001047402F07A90
:0A0F8F00147B0D8B04900105ECF0BB
:0C0F9900900106EAF09001087402F07A62
:0A0FA5002A7B0D8B04900109ECF08B
:0C0FAF0090010AEAF090010C7402F07A44
:0A0FBB00407B0D8B0490010DECF05B
:0C0FC50090010EEAF09001107402F07A26
:0A0FD100567B0D8B04900111ECF02B
:0C0FDB00900112EAF09001147402F07A08
:0A0FE7006C7B0D8B04900115ECF0FB
:0C0FF100900116EAF09001187402F07AEA
:0A0FFD00827B0D8B04900119ECF0CB
:0C10070090011AEAF09001207402F07AC7
:0A101300987B0D8B04900121ECF096
:0C101D00900122EAF09001247402F07AA5
:0A102900117B0E8B04900125ECF002
:0C103300900126EAF09001287402F07A87
:0A103F00BC7B0E8B04900129ECF03D
:0C10490090012AEAF090012C7402F07A69
:0A105500D27B0E8B0490012DECF00D
:0C105F0090012EEAF09001307402F07A4B
:0A106B00E87B0E8B04900131ECF0DD
:0C107500900132EAF09001347402F07A2D
:0A108100FE7B0E8B04900135ECF0AD
:0C108B00900136EAF09001387402F07A0F
:0A109700147B0F8B04900139ECF07C
:0C10A10090013AEAF090013C7402F07AF1
:0A10AD002A7B0F8B0490013DECF04C
:0E10B70090013EEAF05391EF90E65D747FF0F9
:0E10C50090E65CE0FA447FF090E65F74FFF086
:0E10D30090E65E74FFF0D2E8D2AF90E61174A2
:0E10E100A0F00000000090E61074A0F00000E7
:0D10EF00000090E61274E2F0000000009096
:0E10FC00E61374A2F00000000090E614E4F089
:0E110A000000000090E615E4F00000000090E8
:0D111800E680E04482F09000FA120264903C
:07112500E680E054F7F02220
:0E112C00120F4090E6A3E0FA54FEF00000001F
:0E113A000090E6A4E0FA54FEF00000000090E1
:0E114800E6957480F00000000090E69574803B
:0C115600F0C2B1C2B2C2B4C2B5E4F528C8
:07116200F529FCFDF55DF528
:041169005EF55FF5DB
:01116D006021
:06116E0020B3030211B3DF
:07117400EC4D60030211B312
:0A117B007401B55D06E4B55E028064
:011185000366
:031186000211B3A0
:0A118900E4F55DF55E90F00074528D
:0E119300F090F0017453F090F0027454F0905C
:0E11A100E690E4F00000000090E6917403F088
:0411AF00000000003C
:0E11B300A2B3E433FC7D0090E6A4E0FE30E23F
:0411C100030213987A
:0611C50030B7030213988D
:0E11CB0090E694E0FF7E0090E695E0FA7B004F
:0811D9004EF52CEB4FF52DE55E
:0611E1002C452D700302F5
:0211E700138B68
:0A11E900C3E4952C7402952D500309
:0311F30002138B59
:0611F600E4F52AF52B755B
:0711FC006101E4F562C3E5A7
:0A1203002C9403E52D940050030223
:02120D00132AA2
:0E120F0090F400E0FEBE413F90F401E0FEBE10
:0E121D00543790F402E0FEBE522F7E037F0095
:0A122B00C3EE952CEF952D50178EA1
:0C12350002EA242BF88E8274F42FF5835B
:0A124100E0FAF60EBE00E30F80E0B5
:09124B00752A03E4F52BD2B1026F
:02125400132A5B
:0E12560090F400E0FABA411890F401E0FABA00
:0C126400431090F402E0FABA4B08E4F5E5
:0412700061F56202C0
:02127400132A3B
:0A12760090F400E0FABA420280038F
:0312800002132A2C
:0A12830090F401E0FABA440280037F
:03128D0002132A1F
:0A12900090F402E0FABA5202800363
:03129A0002132A12
:0A129D00E4F561F562D2B2D2B400AC
:0712A7000000000000000040
:0612AE0030B6030212BB82
:0712B400000000000212AE71
:0D12BB00D2B50000000090F0007442F090E9
:0C12C800F0017444F090F0027452F0AA9F
:0312D4002AAB2B17
:0C12D700C3EA9408EB9400400302130CDF
:0612E300A2B620B401B325
:0E12E90040EC74032AFEE43BFF8E8274F02F6B
:0E12F700F583E590F000000000A2B692B40A64
:04130500BA00010B1E
:031309000212D7F6
:0A130C008A2A8B2B90E690E4F00093
:0C13160000000090E691740BF0E4F52854
:07132200F529755F01E4F5F8
:011329006063
:07132A00E56145627003025A
:02133100138522
:081333007A017B00AE2AAF2B0A
:0A133B00C3EE952CEF952D40030240
:0213450013850E
:06134700A2B420B601B3C0
:06134D004004EA4B602B96
:0E135300C004C0058E8274F42FF583E0F5A06F
:0C136100A2B6E433FCD374016C7001C32D
:0D136D0092B47A007B00D2B50EBE00010FD5
:04137A00D005D004C6
:07137E000000000002133B18
:06138500C2B5C2B2C2B104
:0D138B000000000090E6957480F002116EE5
:0C13980090E6A3E0FA30E205E4F55FF512
:0113A40060E8
:0613A50020B7030213E86B
:0613AB00A2B620B401B35C
:0513B10050030213E8E7
:0713B600E55F4560600302E2
:0213BD0013E833
:0A13BF0085288274F02529F583E5E6
:0D13C90090F000000000A2B692B474FE2562
:0713D60029400A0528E4B5D7
:0613DD0028090529800526
:0513E300E4F528F529E6
:0613E80030B703021424DB
:0713EE00E528452970030208
:0213F5001424BE
:0913F70074FE25295003021424A0
:0B14000090E690E529F000000000AA33
:0A140B00287B0090E691EAF0755D81
:0814150001E4F55EE4F528F5A1
:06141D0029755F01E4F5F2
:011423006068
:071424000000000002116E40
:05142F005A544558006D
:0B143400536D6172744C6F67696300B8
:0A143F0028756E6B6E6F776E290042
:0114490000A2
:0E144A0012010002FFFFFF401A220001000005
:041458000102030189
:0A145C000A060002FFFFFF40010036
:0E14660009022E00010104C032090400000436
:0E147400FFFFFF000705810240000007050191
:0E148200024000000705820200020007050478
:041490000200020054
:02149400000056
:0E14960009022E00010104C032090400000406
:0E14A400FFFFFF000705810240000007050161
:0E14B20002400000070582024000000705040A
:0414C00002400000E6
:0214C400000026
:0414C600040300001B
:0214CA00000020
:0114CC00001F
:0114CD00FF1F
:0114CE00001D
:0814CF00000000000000000015
:06023700E478FFF6D8FD9B
:08021500790DE94400601B7A39
:05021D00019014CA78F5
:030222000B7592C7
:0A02250032E493F2A308B8000205CA
:08022F0092D9F4DAF27592FF96
:08023D007800E84400600A7932
:03024500007592AF
:0602480032E4F309D8FCCA
:08024E00780BE84400600C7914
:0B02560001903200E4F0A3D8FCD9FABC
:030208007581629B
:0A020B0012142BE5826003020203C7
:04142B0075820022A4
:00000001FF
