:03020000020208EF
:0302610002020393
:0502030012116B80FEEA
:03000000020200F9
:0100030032CA
:01000B0032C2
:0100130032BA
:01001B0032B2
:0100230032AA
:01002B0032A2
:01003300329A
:01003B003292
:01004300328A
:01004B003282
:01005300327A
:01005B003272
:01006300326A
:0101000032CC
:0101040032C8
:0101080032C4
:01010C0032C0
:0101100032BC
:0101140032B8
:0101180032B4
:0101200032AC
:0101240032A8
:0101280032A4
:01012C0032A0
:01013000329C
:010134003298
:010138003294
:01013C003290
:01014000328C
:010148003284
:01014C003280
:01015000327C
:010154003278
:010158003274
:01015C003270
:01016000326C
:01017000325C
:010174003258
:010178003254
:01017C003250
:01018000324C
:010184003248
:010188003244
:01018C003240
:01019000323C
:010194003238
:010198003234
:01019C003230
:0101A000322C
:0101A8003224
:0101AC003220
:0101B000321C
:0101B4003218
:0101B8003214
:010264002277
:08026500AA82AB837C007D003E
:0B026D00C3EC9AED9B50147EB07F04A0
:050278001EBEFF011F86
:0B027D00EE4F70F70CBC00E80D80E5B0
:010288002253
:08028900AA82AB837C007D001A
:0B029100C3EC9AED9B50147E0A7F0026
:05029C001EBEFF011F62
:0B02A100EE4F70F70CBC00E80D80E58C
:0102AC00222F
:0E02AD0075AF0790E67BE090E67CF0DAF32276
:0102BB002220
:0202BC007A00C6
:0302BE00BAFF0084
:0D02C100500B90E678E0FB20E0030A80F08F
:0C02CE0090E678E0FA20E204EA20E10B60
:0B02DA0090E678E04440F075820122BD
:0402E50075820022FC
:0202E9007A0099
:0302EB00BAFF0057
:0D02EE00500B90E678E0FB20E0030A80F062
:0E02FB0090E678E0FA30E20B90E678E04440BE
:05030900F075820122E5
:04030E0075820022D2
:020312007A006F
:03031400BAFF002D
:0E031700500F90E678E0FB20E2047582002291
:030325000A80EC5F
:0403280075820122B7
:02032C007A0055
:03032E00BAFF0013
:0E033100500F90E678E0FB20E6047582002273
:03033F000A80EC45
:04034200758201229D
:09034600AA82C3E49521E433FB13
:0E034F0090E678E04480F0C002C00312031272
:0E035D00D003D00290E679EAF0C002C003128D
:0C036B0002BCE582D003D0027012E52233
:0C037700600A90E678E04440F012032C8D
:04038300758200225D
:0E038700EB601090000AC002C003120289D081
:0503950003D00280B559
:0C039A00E522600890E678E0FA4440F0AC
:0403A6007582012239
:0C03AA00AA82AB837C00E5257003F5827D
:0103B6002224
:0A03B7007521647522007582A2C052
:0E03C10002C003C004120346E582D004D0033C
:0703CF00D00260030204B03C
:0C03D60090E679E524F0C002C003C004EA
:0E03E2001202BCE582D004D003D002600302F8
:0203F00004B057
:0C03F20090E679E523F0C002C003C004CF
:0E03FE001202BCE582D004D003D002600302DC
:02040C0004B03A
:0E040E0090E678E04440F0C002C003C0041243
:0D041C00032C90E678E04480F0120312906B
:0E042900E67974A3F01202BCE582D004D00381
:0E043700D002707590E679E08A828B83F0C067
:0E04450002C003C0041202E9E582D004D00315
:05045300D0027059FD0C
:0C045800C3ED9525502A90E679E08A82D9
:0E0464008B83F0A3AA82AB83C002C003C00446
:0E047200C0051202E9E582D005D004D003D007
:0804800002702D0D8D0480D0E7
:0E04880090E678E04420F090E679E0C004129F
:0E04960002E9E582D004701290E678E044405E
:0C04A400F090E679E0C00412032CD004B4
:0304B0008C822219
:0A04B300AA82AB837C0075216475FA
:0C04BD0022007582A2C002C003C004121D
:0D04C9000346E582D004D003D00260030298
:0204D6000569B6
:0C04D80090E679E527F0C002C003C004E4
:0E04E4001202BCE582D004D003D002600302F5
:0204F20005699A
:0C04F40090E679E526F0C002C003C004C9
:0E0500001202BCE582D004D003D002705CFD74
:0C050E00C3ED952850478A828B83E0FEE5
:0E051A00A3AA82AB8390E679EEF0903A04E05B
:0D052800FFEE2FF0903A02E0FEA3E0FF90FE
:0E0535003A0274012EF0E43FA3F0C002C003AE
:0E054300C004C0051202BCE582D005D004D071
:0A05510003D00270130D8D0480B377
:0E055B0090E678E04440F0C00412032CD00477
:030569008C82225F
:0A056C00903A0EE0FA903A00E0F534
:0605760023A3E0F5248A36
:0C057C002590E740C0021203AAAB82D019
:0E058800027C00903A00E0FDA3E0FE903A00F5
:0A059600EA2DF0EC3EA3F08B822268
:0B05A000AA82903A00E0F526A3E0F5E7
:0905AB00278A2890E740C00212E3
:0E05B40004B3D0027B00903A00E0FCA3E0FD0F
:0B05C200903A00EA2CF0EB3DA3F02281
:0D05CD00AA8290E6017480F000000000900A
:0E05DA00E670E4F090E671F0740555B2F5F0AD
:0E05E80074FA45F0F5B274804AF58090000A6E
:0E05F600C002120265D00253B4F774024AF537
:05060400807A007B007C
:0E0609002080208A048B057E007F00C3EC94C5
:0E061700FFED94FFEE9400EF64809480500796
:070625000ABA00E00B80DDC2
:07062C003080047AC880024F
:020633007A64E7
:0E063500903A0AEAF0903A06E4F0A3F0A3F03F
:08064300A3F0903A05E4F02257
:06064B007582200205CDBE
:060651007582600205CD78
:0306570002064B4D
:0D065A0075B4FF75A0FF75B53675B00022B0
:070667003080047A148002C8
:02066E007A0A06
:0C067000903A0AE0FBEA2BF07A007B00D5
:0E067C00C3EA9440EB9400500BD283C2830A71
:06068A00BA00EF0B80EC4A
:0E069000D287D283C283D283C283D283C28335
:0E069E00D283C28353B2053080047A028002F8
:0206AC007A01D1
:0E06AE00903A0AE0FBEA2BF0308105D281126F
:0206BC00065ADC
:0606BE00D28143B20222CA
:0C06C40085B52975B5FF903A0EE0FB905B
:0E06D0003A06E0FCA3E0FDA3E0FEA3E0FF7805
:0E06DE000079007A00903A06EB2CF0E83DA37C
:0E06EC00F0E93EA3F0EA3FA3F090E68BE06059
:0E06FA0022FA759B40759AE775AF07903A0596
:05070800E0F990E67B22
:0E070D00E0F5B0D28329F9C283DAF5903A05FF
:02071B00E9F003
:0B071D008529B590E68BE0FABA400099
:0507280050030206670A
:01072D0022A9
:01006C00286B
:01006D000191
:04006E005A54455843
:040072000A0C000074
:010076000089
:010077000187
:060078000300000000007F
:0C007E0000000000000000000000000076
:0A008A00303030303030303030308C
:01072E0022A8
:0E072F0090E683E4F07420F07410F07430F063
:0E073D0090E6837401F07421F07411F07431B1
:0E074B00F090E6837412F07432F07404F074CF
:0307590024F02267
:0A075C00AA82E50924E050037509A4
:010766001F73
:0C07670075AF078A9B85089A759E417546
:0A0773009DE790E67C7403F07A0025
:0C077D00C3EA9509501190E67BE0FB9068
:0B078900E67CF090E67CE4F00A80E9DA
:0B079400E5090425E0FA90E740F09032
:0E079F00E7417403F090E68AE4F090E68BEAFE
:0207AD00F02238
:0E07AF00903A0CE0FAA3E0FBC374409AE49B7E
:0807BD0050067C407D00800421
:0407C5008A048B0512
:0E07C900903A0EECF07D00903A0CEAC39CF0E2
:0507D700EB9DA3F022E0
:0A07DC00903A0FE0FABA3102802BC8
:0407E600BA32012200
:0E07EA00BA3927903A04E4F0903A02F0A3F0F6
:0E07F80090E6BBE0FB7A0090E6BAE0FC7D00E4
:0B080600903A00EC4AF0ED4BA3F0220A
:0308110002065785
:0808140090E6A0E04401F0228F
:0C081C00C020C0E0C0F0C082C083C00259
:0E082800C003C004C005C006C007C000C00168
:0E083600C0D075D00090E6B9E0FA903A0FF00D
:0E08440090E6B57401F090E6B9E0FA24F350A6
:0408520003020BD2C0
:07085600EA2A2A90085D73F5
:07085D0002088402093802C1
:060864000BD20209B502EF
:06086A000BD2020BD202CA
:060870000A4D020B6802B4
:060876000B6A020B7B027D
:06087C000B80020B91024B
:020882000B96D3
:0A08840090E6B8E0FABA8002800D99
:05088E00BA8102801E8A
:05089300BA8202802F73
:03089800020BD27E
:0E089B0090E740E4F090E741F090E68AF0909C
:0808A900E68B7402F0020BD291
:0E08B10090E740E4F090E741F090E68AF09086
:0808BF00E68B7402F0020BD27B
:0C08C70090E6BCE0FA600FBA0102801954
:0508D300BA800280055F
:0508D800BA812F801E13
:0E08DD0090E6A0E0FA53020190E740EAF080B6
:0108EB003AD2
:0E08EC0090E6A1E0FA53020190E740EAF080A6
:0108FA002BD2
:0E08FB0090E6A2E0FA53020190E740EAF08096
:010909001CD1
:0E090A0090E6BCE0C31314540324A3F582E46A
:0E09180034E6F583E0FA53020190E740EAF07E
:0E09260090E741E4F090E68AF090E68B7402D0
:04093400F0020BD2F0
:0A09380090E6B8E0FABA020280036C
:03094200020BD2D3
:0909450090E6BAE06003020BD257
:0C094E0090E6BCE0FA600FBA01028015D0
:05095A00BA80028005D7
:05095F00BA812380169F
:0B09640090E6A0E0FA54FEF0020BD277
:0B096F0090E6A1E0FA54FEF0020BD26B
:0B097A0090E6A2E0FA54FEF0020BD25F
:0E09850090E6BCE0C31314540324A3FAE43438
:0E099300E6FB90E6BCE0C31314540324A3F566
:0E09A10082E434E6F583E0FC5304FE8A828B88
:0609AF0083ECF0020BD204
:0A09B50090E6B8E0FABA02028003EF
:0309BF00020BD256
:0909C20090E6BAE06003020BD2DA
:0C09CB0090E6BCE0FA600FBA0102801454
:0509D700BA800280055A
:0509DC00BA8120801427
:0A09E10090E6A0E0FA4401F0804126
:0A09EB0090E6A1E0FA4401F0803725
:0A09F50090E6A2E0FA4401F0802D24
:0E09FF0090E6BCE0C31314540324A3FAE434BE
:0E0A0D00E6FB90E6BCE0C31314540324A3F5EB
:0E0A1B0082E434E6F583E0FC4304FE8A828B1D
:030A290083ECF06B
:0E0A2C0090E6BCE05480C423541FFA90E6BC50
:0E0A3A00E0FB740F5B420290E683EAF074204A
:050A48004AF0020BD290
:0A0A4D0090E6BBE0FABA010280193E
:050A5700BA0202802636
:050A5C00BA0302804D09
:060A6100BA0603020B219E
:060A6700BA0703020B3385
:030A6D00020B5E1B
:0A0A70007A927B1490E6B3EBF0904D
:080A7A00E6B47492F0020BD205
:0B0A820090E680E0FA30E7127AAE7BCD
:0A0A8D001490E6B3EBF090E6B474A9
:050A9700AEF0020BD2DD
:0A0A9C007ADE7B1490E6B3EBF090D5
:080AA600E6B474DEF0020BD28D
:0A0AAE0090E6BAE0FABA0102800FE8
:050AB800BA0202801CDF
:050ABD00BA03028029CC
:050AC200BA044A803671
:060AC7007582777A777B4F
:040ACD00148B087509
:060AD100090512075C029A
:020AD7000BD240
:060AD90075827C7A7C7B33
:040ADF00148B0875F7
:060AE300090B12075C0282
:020AE9000BD22E
:0A0AEB0075828A7A8A7B008B0875F9
:060AF500090A12075C0271
:020AFB000BD21C
:060AFD007582877A877BF9
:040B0300148B0875D2
:060B0700090A12075C025E
:020B0D000BD209
:0A0B0F007A0E7B1590E6B3EBF09030
:080B1900E6B4740EF0020BD2E9
:0A0B21007AA47B1490E6B3EBF09089
:080B2B00E6B474A4F0020BD241
:0B0B330090E680E0FA30E7127ADE7BEB
:0A0B3E001490E6B3EBF090E6B474F7
:050B4800DEF0020BD2FB
:0A0B4D007AAE7B1490E6B3EBF09053
:070B5700E6B474AEF08074F7
:0A0B5E0090E6A0E0FA4401F0806A7E
:020B68008068A3
:0E0B6A0090E740E4F090E68AF090E68B74018C
:030B7800F08057B3
:050B7B0012072F80525B
:0E0B800090E740E4F090E68AF090E68B740176
:030B8E00F08041B3
:050B910012072F803C5B
:0E0B960090E6B8E0FABA823490E6BCE0C313F1
:0B0BA40014540325E02411F582E43412
:0C0BAF003AF583E4F0A3F090E685E090B6
:0D0BBB00E740F090E684E0FA90E741F0900A
:0A0BC800E68AE4F090E68B7402F078
:0B0BD20090E6B8E0FABA4003020CF510
:050BDD00BAC002800314
:030BE200020D1FE2
:0E0BE50090E6BFE0FB7A0090E6BEE0FC7D00EB
:0E0BF300903A0CEC4AF0ED4BA3F01207AF90D5
:090C0100E6B9E0FABA2202801300
:060C0A00BA3003020CA247
:050C1000BA3802802546
:050C1500BA3A0280491B
:030C1A00020CEBDE
:0E0C1D0090E6B5E4F090E68AF090E68B74283D
:0D0C2B00F090E6B3E4F090E6B4746CF002D3
:020C38000D1F8E
:0E0C3A0090E6BBE0FB7A0090E6BAE0FC7D009D
:0E0C4800903A00EC4AF0ED4BA3F090E68AE4FF
:0D0C5600F012056CE58290E68BF0020D1F98
:0E0C6300903A02E0FAA3E0FB8A0490E740EC2E
:0D0C7100F08B0290E741EAF0903A04E09029
:0A0C7E00E742F075210075220175B0
:0D0C880082A2120346AA8290E743EAF09090
:0D0C9500E68AE4F090E68B7404F0020D1F77
:060CA200759B057A057B3D
:0C0CA8003A8B9A759E417A417BE78B9D48
:0E0CB400C0027A071202ADD00253B2FD3081A9
:0D0CC2000C90E740E4F0D28143B2028009BB
:090CCF0090E7407401F012064B9D
:0E0CD80090E7487401F090E68AE4F090E68B15
:050CE6007409F08034E8
:0A0CEB0090E6A0E0FA4401F0802A30
:0C0CF50090E6BFE0700690E6BEE06016DE
:0E0D0100903A107401F090E68BE4F05391EFFD
:080D0F0090E65D7401F080190B
:080D17001207DC90E68BE4F00A
:0E0D1F005391EF90E65D7401F090E6A0E0FACB
:030D2D004480F00F
:0E0D3000D0D0D001D000D007D006D005D0041E
:0D0D3E00D003D002D083D082D0F0D0E0D01E
:020D4B00203254
:0E0D4D00C0E0C082C0835391EF90E65D740257
:080D5B00F0D083D082D0E03219
:0E0D6300C0E0C082C0835391EF90E65D74043F
:080D7100F0D083D082D0E03203
:0E0D7900C0E0C082C0835391EF90E65D740825
:080D8700F0D083D082D0E032ED
:0E0D8F00C0E0C082C0835391EF90E65D741007
:080D9D00F0D083D082D0E032D7
:0E0DA500C0E0C082C0835391EF90E65D7420E1
:080DB300F0D083D082D0E032C1
:0E0DBB00C0E0C082C0835391EF90E65D7440AB
:080DC900F0D083D082D0E032AB
:0C0DD100C020C0E0C0F0C082C083C0029F
:0E0DDD00C003C004C005C006C007C000C001AE
:0E0DEB00C0D075D000C2E81207AF903A0FE0FA
:060DF900FABA300280236B
:050DFF00BA3802800576
:050E0400BA3A1280194A
:0E0E090090E68AE4F012056CE58290E68BF02C
:020E1700800950
:090E190090E68AE4F090E68BF00B
:0E0E22005391EF90E65F7401F0D2E8D0D0D08B
:0E0E300001D000D007D006D005D004D003D0EA
:0C0E3E0002D083D082D0F0D0E0D020326F
:0C0E4A00C020C0E0C0F0C082C083C00225
:0E0E5600C003C004C005C006C007C000C00134
:0E0E6400C0D075D000C2E8903A10E0FA6020CD
:0D0E7200903A10E4F090E6BFE0FB7A0090AB
:0E0E7F00E6BEE0FC7D00903A0CEC4AF0ED4B34
:050E8D00A3F01207DCD8
:0D0E92001207AF903A0FE0FABA3102801655
:050E9F00BA3202800ED2
:0E0EA400BA390E90E68BE0F5821205A08003AD
:030EB2001206C461
:0E0EB50090E68BE4F05391EF90E65F7402F04C
:0E0EC300903A0CE0FAA3E0FB4A700890E6A01B
:050ED100E0FA4480F08E
:0E0ED600D2E8D0D0D001D000D007D006D00591
:0E0EE400D004D003D002D083D082D0F0D0E072
:030EF200D02032DB
:0E0EF500C0E0C082C0835391EF90E65F7404AA
:080F0300F0D083D082D0E0326F
:0E0F0B00C0E0C082C0835391EF90E65F74088F
:080F1900F0D083D082D0E03259
:0E0F2100C0E0C082C0835391EF90E65F741071
:080F2F00F0D083D082D0E03243
:0E0F3700C0E0C082C0835391EF90E65F74204B
:080F4500F0D083D082D0E0322D
:0E0F4D00C0E0C082C0835391EF90E65F744015
:080F5B00F0D083D082D0E03217
:0E0F6300C0E0C082C0835391EF90E65F7480BF
:080F7100F0D083D082D0E03201
:0E0F790090E680E04408F090E6007412F090DC
:0E0F87000002120265538EF8D28143B202C2FC
:0E0F9500AFC2E89000437402F0900044740173
:0E0FA300F090004574B8F090E668E04408F065
:0A0FB1009001007402F07A1C7B0826
:0D0FBB008B04900101ECF0900102EAF0902F
:0A0FC80001047402F07A4D7B0D8BDA
:0E0FD20004900105ECF0900106EAF090010891
:0A0FE0007402F07A637B0D8B04901D
:0E0FEA000109ECF090010AEAF090010C74028B
:0A0FF800F07A797B0D8B0490010D57
:0E100200ECF090010EEAF09001107402F07A0A
:0A1010008F7B0D8B04900111ECF0B2
:0C101A00900112EAF09001147402F07AC8
:0A102600A57B0D8B04900115ECF082
:0C103000900116EAF09001187402F07AAA
:0A103C00BB7B0D8B04900119ECF052
:0C10460090011AEAF09001207402F07A88
:0A105200D17B0D8B04900121ECF01E
:0C105C00900122EAF09001247402F07A66
:0A1068004A7B0E8B04900125ECF08A
:0C107200900126EAF09001287402F07A48
:0A107E00F57B0E8B04900129ECF0C5
:0C10880090012AEAF090012C7402F07A2A
:0A1094000B7B0F8B0490012DECF094
:0C109E0090012EEAF09001307402F07A0C
:0A10AA00217B0F8B04900131ECF064
:0C10B400900132EAF09001347402F07AEE
:0A10C000377B0F8B04900135ECF034
:0C10CA00900136EAF09001387402F07AD0
:0A10D6004D7B0F8B04900139ECF004
:0C10E00090013AEAF090013C7402F07AB2
:0A10EC00637B0F8B0490013DECF0D4
:0E10F60090013EEAF05391EF90E65D747FF0BA
:0E11040090E65CE0FA447FF090E65F74FFF046
:0E11120090E65E74FFF0D2E8D2AF90E6117462
:0E112000A0F00000000090E61074A0F00000A7
:0D112E00000090E61274E2F0000000009056
:0E113B00E61374A2F00000000090E614E4F049
:0E1149000000000090E615E4F00000000090A9
:0D115700E680E04482F090000A12026590EC
:07116400E680E054F7F022E1
:0E116B00120F7990E6A3E0FA54FEF0000000A7
:0E1179000090E6A4E0FA54FEF00000000090A2
:0E118700E6957480F00000000090E6957480FC
:0C119500F0C2B1C2B2C2B4C2B5E4F52A87
:0911A100F52BFCFD755F01E4F57E
:0511AA0060E4F561F5B1
:0111AF0062DD
:0611B00020B3030211FB55
:0711B600EC4D60030211FB88
:0A11BD007401B55F06E4B56002801E
:0111C7000324
:0311C8000211FB16
:0611CB0030B7030211FB26
:0A11D100E4F55FF56090F000745241
:0E11DB00F090F0017453F090F0027454F09014
:0E11E900E690E4F00000000090E6917403F040
:0411F70000000000F4
:0E11FB00A2B3E433FC7D0090E6A4E0FE30E2F7
:04120900030213E0E9
:06120D0030B7030213E0FC
:0E12130090E694E0FF7E0090E695E0FA7B0006
:081221004EF52EEB4FF52FE511
:061229002E452F700302A8
:02122F0013D3D7
:0A123100C3E4952E7402952F5003BC
:03123B000213D3C8
:06123E00E4F52CF52D750E
:071244006301E4F564C3E55A
:0A124B002E9403E52F9400500302D7
:02125500137212
:0E12570090F400E0FEBE413F90F401E0FEBEC8
:0E126500543790F402E0FEBE522F7E037F004D
:0A127300C3EE952EEF952F50178E55
:0C127D0002EA242DF88E8274F42FF58311
:0A128900E0FAF60EBE00E30F80E06D
:09129300752C03E4F52DD2B10223
:02129C001372CB
:0E129E0090F400E0FABA411890F401E0FABAB8
:0C12AC00431090F402E0FABA4B08E4F59D
:0412B80063F5640274
:0212BC001372AB
:0A12BE0090F400E0FABA4202800347
:0312C8000213729C
:0A12CB0090F401E0FABA4402800337
:0312D5000213728F
:0A12D80090F402E0FABA520280031B
:0312E20002137282
:0A12E500E4F563F564D2B2D2B40060
:0712EF0000000000000000F8
:0612F60030B603021303F1
:0712FC00000000000212F6E1
:0D130300D2B50000000090F0007442F090A0
:0C131000F0017444F090F0027452F0AA56
:03131C002CAB2DCA
:0C131F00C3EA9408EB940040030213544E
:06132B00A2B620B401B3DC
:0E13310040EC74032AFEE43BFF8E8274F02F22
:0E133F00F583E590F000000000A2B692B40A1B
:04134D00BA00010BD6
:0313510002131F65
:0A1354008A2C8B2D90E690E4F00047
:0C135E0000000090E691740BF0E4F52A0A
:07136A00F52B756101E4F5AC
:011371006219
:07137200E56345647003020E
:0213790013CD92
:08137B007A017B00AE2CAF2DBE
:0A138300C3EE952EEF952F400302F4
:02138D0013CD7E
:06138F00A2B420B601B378
:061395004004EA4B602B4E
:0E139B00C004C0058E8274F42FF583E0F5A027
:0C13A900A2B6E433FCD374016C7001C3E5
:0D13B50092B47A007B00D2B50EBE00010F8D
:0413C200D005D0047E
:0713C6000000000002138388
:0613CD00C2B5C2B2C2B1BC
:0D13D3000000000090E6957480F00211B05B
:0C13E00090E6A3E0FA30E205E4F561F5C8
:0113EC00629E
:0613ED0020B703021430DA
:0613F300A2B620B401B314
:0513F900500302143056
:0713FE00E561456260030296
:021405001430A1
:0A140700852A8274F0252BF583E599
:0D14110090F000000000A2B692B474FE2519
:07141E002B400A052AE4B58A
:061425002A09052B8005D9
:05142B00E4F52AF52B99
:0614300030B70302146C4A
:07143600E52A452B700302BB
:02143D00146C2D
:09143F0074FE252B500302146C0D
:0B14480090E690E52BF000000000AAE9
:0A1453002A7B0090E691EAF0755F35
:08145D0001E4F560E4F52AF555
:061465002B756101E4F5A6
:01146B00621E
:07146C00000000000211B0B6
:051477005A5445580025
:0B147C00536D6172744C6F6769630070
:0A14870028756E6B6E6F776E2900FA
:01149100005A
:0E14920012010002FFFFFF401A2200010000BD
:0414A0000102030141
:0A14A4000A060002FFFFFF400100EE
:0E14AE0009022E00010104C0320904000004EE
:0E14BC00FFFFFF000705810200020007050187
:0E14CA0002000200070582020002000705046E
:0414D800020002000C
:0214DC0000000E
:0E14DE0009022E00010104C0320904000004BE
:0E14EC00FFFFFF000705810240000007050119
:0E14FA000240000007058202400000070504C2
:04150800024000009D
:02150C000000DD
:04150E0004030000D2
:021512000000D7
:0115140000D6
:01151500FFD6
:0115160000D4
:081517000000000000000000CC
:06023700E478FFF6D8FD9B
:08021500790DE94400601B7A39
:05021D000190151278AC
:030222000C7592C6
:0A0225003AE493F2A308B8000205C2
:08022F0092D9F4DAF27592FF96
:08023D007800E84400600A7932
:03024500007592AF
:060248003AE4F309D8FCC2
:08024E00780CE84400600C7913
:0B02560001903A00E4F0A3D8FCD9FAB4
:0302080075816499
:0A020B00121473E58260030202037F
:04147300758200225C
:00000001FF
